{
    "contractName": "InteractionContract",
    "abi": [
        {
            "anonymous": false,
            "inputs": [
                {
                    "indexed": true,
                    "internalType": "uint256",
                    "name": "requestId",
                    "type": "uint256"
                },
                {
                    "indexed": false,
                    "internalType": "string",
                    "name": "consumerName",
                    "type": "string"
                },
                {
                    "indexed": false,
                    "internalType": "uint256",
                    "name": "allocatedResources",
                    "type": "uint256"
                }
            ],
            "name": "InteractionData",
            "type": "event"
        },
        {
            "inputs": [],
            "name": "interactionCount",
            "outputs": [
                {
                    "internalType": "uint256",
                    "name": "",
                    "type": "uint256"
                }
            ],
            "stateMutability": "view",
            "type": "function"
        },
        {
            "inputs": [
                {
                    "internalType": "uint256",
                    "name": "",
                    "type": "uint256"
                }
            ],
            "name": "interactions",
            "outputs": [
                {
                    "internalType": "uint256",
                    "name": "requestId",
                    "type": "uint256"
                },
                {
                    "internalType": "string",
                    "name": "consumerName",
                    "type": "string"
                },
                {
                    "internalType": "uint256",
                    "name": "allocatedResources",
                    "type": "uint256"
                }
            ],
            "stateMutability": "view",
            "type": "function"
        },
        {
            "inputs": [
                {
                    "internalType": "uint256",
                    "name": "_requestId",
                    "type": "uint256"
                },
                {
                    "internalType": "string",
                    "name": "_consumerName",
                    "type": "string"
                },
                {
                    "internalType": "uint256",
                    "name": "_allocatedResources",
                    "type": "uint256"
                }
            ],
            "name": "storeInteraction",
            "outputs": [],
            "stateMutability": "nonpayable",
            "type": "function"
        }
    ],
    "bytecode": "608060405234801561001057600080fd5b506104f0806100206000396000f3fe608060405234801561001057600080fd5b50600436106100415760003560e01c80630ba460ff14610046578063649e4bcd14610071578063a890610b14610086575b600080fd5b6100596100543660046101c6565b61009d565b60405161006893929190610225565b60405180910390f35b61008461007f366004610264565b610148565b005b61008f60015481565b604051908152602001610068565b600060208190529081526040902080546001820180549192916100bf90610328565b80601f01602080910402602001604051908101604052809291908181526020018280546100eb90610328565b80156101385780601f1061010d57610100808354040283529160200191610138565b820191906000526020600020905b81548152906001019060200180831161011b57829003601f168201915b5050505050908060020154905083565b60008381526020819052604090208381556001810161016784826103b1565b50818160020181905550837f49ef608a6bca982c2e590cb0051c5c7ef30529df78f388a3067c9aa9a225be3084846040516101a3929190610471565b60405180910390a2600180549060006101bb83610493565b919050555050505050565b6000602082840312156101d857600080fd5b5035919050565b6000815180845260005b81811015610205576020818501810151868301820152016101e9565b506000602082860101526020601f19601f83011685010191505092915050565b83815260606020820152600061023e60608301856101df565b9050826040830152949350505050565b634e487b7160e01b600052604160045260246000fd5b60008060006060848603121561027957600080fd5b83359250602084013567ffffffffffffffff8082111561029857600080fd5b818601915086601f8301126102ac57600080fd5b8135818111156102be576102be61024e565b604051601f8201601f19908116603f011681019083821181831017156102e6576102e661024e565b816040528281528960208487010111156102ff57600080fd5b826020860160208301376000602084830101528096505050505050604084013590509250925092565b600181811c9082168061033c57607f821691505b60208210810361035c57634e487b7160e01b600052602260045260246000fd5b50919050565b601f8211156103ac57600081815260208120601f850160051c810160208610156103895750805b601f850160051c820191505b818110156103a857828155600101610395565b5050505b505050565b815167ffffffffffffffff8111156103cb576103cb61024e565b6103df816103d98454610328565b84610362565b602080601f83116001811461041457600084156103fc5750858301515b600019600386901b1c1916600185901b1785556103a8565b600085815260208120601f198616915b8281101561044357888601518255948401946001909101908401610424565b50858210156104615787850151600019600388901b60f8161c191681555b5050505050600190811b01905550565b60408152600061048460408301856101df565b90508260208301529392505050565b6000600182016104b357634e487b7160e01b600052601160045260246000fd5b506001019056fea2646970667358221220df15c37648774579c816f2c62bf73b6a1e2847e15acdd08033e230d8105e32c364736f6c63430008130033",
    "sourcePath": "d:/B.Tech/Blockchain/IIIT Bangalore/Socket Programming/InteractionContract.sol",
    "compiler": {
        "name": "solc",
        "version": "0.8.19+commit.7dd6d404"
    },
    "functionHashes": {
        "interactionCount()": "a890610b",
        "interactions(uint256)": "0ba460ff",
        "storeInteraction(uint256,string,uint256)": "649e4bcd"
    },
    "gasEstimates": {
        "creation": {
            "codeDepositCost": "252800",
            "executionCost": "294",
            "totalCost": "253094"
        },
        "external": {
            "interactionCount()": "2317",
            "interactions(uint256)": "infinite",
            "storeInteraction(uint256,string,uint256)": "infinite"
        }
    }
}