{
	"data": {
		"bytecode": {
			"linkReferences": {},
			"object": "608060405234801561001057600080fd5b50610787806100206000396000f3fe608060405234801561001057600080fd5b50600436106100415760003560e01c80630ba460ff1461004657806364fbc6161461007a578063a890610b14610096575b600080fd5b610060600480360381019061005b9190610351565b6100b4565b6040516100719594939291906104c4565b60405180910390f35b610094600480360381019061008f919061037e565b610172565b005b61009e610223565b6040516100ab91906104a9565b60405180910390f35b60006020528060005260406000206000915090508060000154908060010180546100dd906105dc565b80601f0160208091040260200160405190810160405280929190818152602001828054610109906105dc565b80156101565780601f1061012b57610100808354040283529160200191610156565b820191906000526020600020905b81548152906001019060200180831161013957829003601f168201915b5050505050908060020154908060030154908060040154905085565b60008060008781526020019081526020016000209050858160000181905550848160010190805190602001906101a9929190610229565b50838160020181905550828160030181905550818160040181905550857fe77595459d977a7cbc1a91173c4e8460fc349a82a844c3609a1654bdf3a0bf3f868686866040516101fb949392919061045d565b60405180910390a2600160008154809291906102169061063f565b9190505550505050505050565b60015481565b828054610235906105dc565b90600052602060002090601f016020900481019282610257576000855561029e565b82601f1061027057805160ff191683800117855561029e565b8280016001018555821561029e579182015b8281111561029d578251825591602001919060010190610282565b5b5090506102ab91906102af565b5090565b5b808211156102c85760008160009055506001016102b0565b5090565b60006102df6102da84610543565b61051e565b9050828152602081018484840111156102fb576102fa61071a565b5b61030684828561059a565b509392505050565b600082601f83011261032357610322610715565b5b81356103338482602086016102cc565b91505092915050565b60008135905061034b8161073a565b92915050565b60006020828403121561036757610366610724565b5b60006103758482850161033c565b91505092915050565b600080600080600060a0868803121561039a57610399610724565b5b60006103a88882890161033c565b955050602086013567ffffffffffffffff8111156103c9576103c861071f565b5b6103d58882890161030e565b94505060406103e68882890161033c565b93505060606103f78882890161033c565b92505060806104088882890161033c565b9150509295509295909350565b600061042082610574565b61042a818561057f565b935061043a8185602086016105a9565b61044381610729565b840191505092915050565b61045781610590565b82525050565b600060808201905081810360008301526104778187610415565b9050610486602083018661044e565b610493604083018561044e565b6104a0606083018461044e565b95945050505050565b60006020820190506104be600083018461044e565b92915050565b600060a0820190506104d9600083018861044e565b81810360208301526104eb8187610415565b90506104fa604083018661044e565b610507606083018561044e565b610514608083018461044e565b9695505050505050565b6000610528610539565b9050610534828261060e565b919050565b6000604051905090565b600067ffffffffffffffff82111561055e5761055d6106e6565b5b61056782610729565b9050602081019050919050565b600081519050919050565b600082825260208201905092915050565b6000819050919050565b82818337600083830152505050565b60005b838110156105c75780820151818401526020810190506105ac565b838111156105d6576000848401525b50505050565b600060028204905060018216806105f457607f821691505b60208210811415610608576106076106b7565b5b50919050565b61061782610729565b810181811067ffffffffffffffff82111715610636576106356106e6565b5b80604052505050565b600061064a82610590565b91507fffffffffffffffffffffffffffffffffffffffffffffffffffffffffffffffff82141561067d5761067c610688565b5b600182019050919050565b7f4e487b7100000000000000000000000000000000000000000000000000000000600052601160045260246000fd5b7f4e487b7100000000000000000000000000000000000000000000000000000000600052602260045260246000fd5b7f4e487b7100000000000000000000000000000000000000000000000000000000600052604160045260246000fd5b600080fd5b600080fd5b600080fd5b600080fd5b6000601f19601f8301169050919050565b61074381610590565b811461074e57600080fd5b5056fea26469706673582212204d14de20416d6751cbb4006a054b06b45de681a9c3183e9489466190e4305c0a64736f6c63430008060033",
			"opcodes": "PUSH1 0x80 PUSH1 0x40 MSTORE CALLVALUE DUP1 ISZERO PUSH2 0x10 JUMPI PUSH1 0x0 DUP1 REVERT JUMPDEST POP PUSH2 0x787 DUP1 PUSH2 0x20 PUSH1 0x0 CODECOPY PUSH1 0x0 RETURN INVALID PUSH1 0x80 PUSH1 0x40 MSTORE CALLVALUE DUP1 ISZERO PUSH2 0x10 JUMPI PUSH1 0x0 DUP1 REVERT JUMPDEST POP PUSH1 0x4 CALLDATASIZE LT PUSH2 0x41 JUMPI PUSH1 0x0 CALLDATALOAD PUSH1 0xE0 SHR DUP1 PUSH4 0xBA460FF EQ PUSH2 0x46 JUMPI DUP1 PUSH4 0x64FBC616 EQ PUSH2 0x7A JUMPI DUP1 PUSH4 0xA890610B EQ PUSH2 0x96 JUMPI JUMPDEST PUSH1 0x0 DUP1 REVERT JUMPDEST PUSH2 0x60 PUSH1 0x4 DUP1 CALLDATASIZE SUB DUP2 ADD SWAP1 PUSH2 0x5B SWAP2 SWAP1 PUSH2 0x351 JUMP JUMPDEST PUSH2 0xB4 JUMP JUMPDEST PUSH1 0x40 MLOAD PUSH2 0x71 SWAP6 SWAP5 SWAP4 SWAP3 SWAP2 SWAP1 PUSH2 0x4C4 JUMP JUMPDEST PUSH1 0x40 MLOAD DUP1 SWAP2 SUB SWAP1 RETURN JUMPDEST PUSH2 0x94 PUSH1 0x4 DUP1 CALLDATASIZE SUB DUP2 ADD SWAP1 PUSH2 0x8F SWAP2 SWAP1 PUSH2 0x37E JUMP JUMPDEST PUSH2 0x172 JUMP JUMPDEST STOP JUMPDEST PUSH2 0x9E PUSH2 0x223 JUMP JUMPDEST PUSH1 0x40 MLOAD PUSH2 0xAB SWAP2 SWAP1 PUSH2 0x4A9 JUMP JUMPDEST PUSH1 0x40 MLOAD DUP1 SWAP2 SUB SWAP1 RETURN JUMPDEST PUSH1 0x0 PUSH1 0x20 MSTORE DUP1 PUSH1 0x0 MSTORE PUSH1 0x40 PUSH1 0x0 KECCAK256 PUSH1 0x0 SWAP2 POP SWAP1 POP DUP1 PUSH1 0x0 ADD SLOAD SWAP1 DUP1 PUSH1 0x1 ADD DUP1 SLOAD PUSH2 0xDD SWAP1 PUSH2 0x5DC JUMP JUMPDEST DUP1 PUSH1 0x1F ADD PUSH1 0x20 DUP1 SWAP2 DIV MUL PUSH1 0x20 ADD PUSH1 0x40 MLOAD SWAP1 DUP2 ADD PUSH1 0x40 MSTORE DUP1 SWAP3 SWAP2 SWAP1 DUP2 DUP2 MSTORE PUSH1 0x20 ADD DUP3 DUP1 SLOAD PUSH2 0x109 SWAP1 PUSH2 0x5DC JUMP JUMPDEST DUP1 ISZERO PUSH2 0x156 JUMPI DUP1 PUSH1 0x1F LT PUSH2 0x12B JUMPI PUSH2 0x100 DUP1 DUP4 SLOAD DIV MUL DUP4 MSTORE SWAP2 PUSH1 0x20 ADD SWAP2 PUSH2 0x156 JUMP JUMPDEST DUP3 ADD SWAP2 SWAP1 PUSH1 0x0 MSTORE PUSH1 0x20 PUSH1 0x0 KECCAK256 SWAP1 JUMPDEST DUP2 SLOAD DUP2 MSTORE SWAP1 PUSH1 0x1 ADD SWAP1 PUSH1 0x20 ADD DUP1 DUP4 GT PUSH2 0x139 JUMPI DUP3 SWAP1 SUB PUSH1 0x1F AND DUP3 ADD SWAP2 JUMPDEST POP POP POP POP POP SWAP1 DUP1 PUSH1 0x2 ADD SLOAD SWAP1 DUP1 PUSH1 0x3 ADD SLOAD SWAP1 DUP1 PUSH1 0x4 ADD SLOAD SWAP1 POP DUP6 JUMP JUMPDEST PUSH1 0x0 DUP1 PUSH1 0x0 DUP8 DUP2 MSTORE PUSH1 0x20 ADD SWAP1 DUP2 MSTORE PUSH1 0x20 ADD PUSH1 0x0 KECCAK256 SWAP1 POP DUP6 DUP2 PUSH1 0x0 ADD DUP2 SWAP1 SSTORE POP DUP5 DUP2 PUSH1 0x1 ADD SWAP1 DUP1 MLOAD SWAP1 PUSH1 0x20 ADD SWAP1 PUSH2 0x1A9 SWAP3 SWAP2 SWAP1 PUSH2 0x229 JUMP JUMPDEST POP DUP4 DUP2 PUSH1 0x2 ADD DUP2 SWAP1 SSTORE POP DUP3 DUP2 PUSH1 0x3 ADD DUP2 SWAP1 SSTORE POP DUP2 DUP2 PUSH1 0x4 ADD DUP2 SWAP1 SSTORE POP DUP6 PUSH32 0xE77595459D977A7CBC1A91173C4E8460FC349A82A844C3609A1654BDF3A0BF3F DUP7 DUP7 DUP7 DUP7 PUSH1 0x40 MLOAD PUSH2 0x1FB SWAP5 SWAP4 SWAP3 SWAP2 SWAP1 PUSH2 0x45D JUMP JUMPDEST PUSH1 0x40 MLOAD DUP1 SWAP2 SUB SWAP1 LOG2 PUSH1 0x1 PUSH1 0x0 DUP2 SLOAD DUP1 SWAP3 SWAP2 SWAP1 PUSH2 0x216 SWAP1 PUSH2 0x63F JUMP JUMPDEST SWAP2 SWAP1 POP SSTORE POP POP POP POP POP POP POP JUMP JUMPDEST PUSH1 0x1 SLOAD DUP2 JUMP JUMPDEST DUP3 DUP1 SLOAD PUSH2 0x235 SWAP1 PUSH2 0x5DC JUMP JUMPDEST SWAP1 PUSH1 0x0 MSTORE PUSH1 0x20 PUSH1 0x0 KECCAK256 SWAP1 PUSH1 0x1F ADD PUSH1 0x20 SWAP1 DIV DUP2 ADD SWAP3 DUP3 PUSH2 0x257 JUMPI PUSH1 0x0 DUP6 SSTORE PUSH2 0x29E JUMP JUMPDEST DUP3 PUSH1 0x1F LT PUSH2 0x270 JUMPI DUP1 MLOAD PUSH1 0xFF NOT AND DUP4 DUP1 ADD OR DUP6 SSTORE PUSH2 0x29E JUMP JUMPDEST DUP3 DUP1 ADD PUSH1 0x1 ADD DUP6 SSTORE DUP3 ISZERO PUSH2 0x29E JUMPI SWAP2 DUP3 ADD JUMPDEST DUP3 DUP2 GT ISZERO PUSH2 0x29D JUMPI DUP3 MLOAD DUP3 SSTORE SWAP2 PUSH1 0x20 ADD SWAP2 SWAP1 PUSH1 0x1 ADD SWAP1 PUSH2 0x282 JUMP JUMPDEST JUMPDEST POP SWAP1 POP PUSH2 0x2AB SWAP2 SWAP1 PUSH2 0x2AF JUMP JUMPDEST POP SWAP1 JUMP JUMPDEST JUMPDEST DUP1 DUP3 GT ISZERO PUSH2 0x2C8 JUMPI PUSH1 0x0 DUP2 PUSH1 0x0 SWAP1 SSTORE POP PUSH1 0x1 ADD PUSH2 0x2B0 JUMP JUMPDEST POP SWAP1 JUMP JUMPDEST PUSH1 0x0 PUSH2 0x2DF PUSH2 0x2DA DUP5 PUSH2 0x543 JUMP JUMPDEST PUSH2 0x51E JUMP JUMPDEST SWAP1 POP DUP3 DUP2 MSTORE PUSH1 0x20 DUP2 ADD DUP5 DUP5 DUP5 ADD GT ISZERO PUSH2 0x2FB JUMPI PUSH2 0x2FA PUSH2 0x71A JUMP JUMPDEST JUMPDEST PUSH2 0x306 DUP5 DUP3 DUP6 PUSH2 0x59A JUMP JUMPDEST POP SWAP4 SWAP3 POP POP POP JUMP JUMPDEST PUSH1 0x0 DUP3 PUSH1 0x1F DUP4 ADD SLT PUSH2 0x323 JUMPI PUSH2 0x322 PUSH2 0x715 JUMP JUMPDEST JUMPDEST DUP2 CALLDATALOAD PUSH2 0x333 DUP5 DUP3 PUSH1 0x20 DUP7 ADD PUSH2 0x2CC JUMP JUMPDEST SWAP2 POP POP SWAP3 SWAP2 POP POP JUMP JUMPDEST PUSH1 0x0 DUP2 CALLDATALOAD SWAP1 POP PUSH2 0x34B DUP2 PUSH2 0x73A JUMP JUMPDEST SWAP3 SWAP2 POP POP JUMP JUMPDEST PUSH1 0x0 PUSH1 0x20 DUP3 DUP5 SUB SLT ISZERO PUSH2 0x367 JUMPI PUSH2 0x366 PUSH2 0x724 JUMP JUMPDEST JUMPDEST PUSH1 0x0 PUSH2 0x375 DUP5 DUP3 DUP6 ADD PUSH2 0x33C JUMP JUMPDEST SWAP2 POP POP SWAP3 SWAP2 POP POP JUMP JUMPDEST PUSH1 0x0 DUP1 PUSH1 0x0 DUP1 PUSH1 0x0 PUSH1 0xA0 DUP7 DUP9 SUB SLT ISZERO PUSH2 0x39A JUMPI PUSH2 0x399 PUSH2 0x724 JUMP JUMPDEST JUMPDEST PUSH1 0x0 PUSH2 0x3A8 DUP9 DUP3 DUP10 ADD PUSH2 0x33C JUMP JUMPDEST SWAP6 POP POP PUSH1 0x20 DUP7 ADD CALLDATALOAD PUSH8 0xFFFFFFFFFFFFFFFF DUP2 GT ISZERO PUSH2 0x3C9 JUMPI PUSH2 0x3C8 PUSH2 0x71F JUMP JUMPDEST JUMPDEST PUSH2 0x3D5 DUP9 DUP3 DUP10 ADD PUSH2 0x30E JUMP JUMPDEST SWAP5 POP POP PUSH1 0x40 PUSH2 0x3E6 DUP9 DUP3 DUP10 ADD PUSH2 0x33C JUMP JUMPDEST SWAP4 POP POP PUSH1 0x60 PUSH2 0x3F7 DUP9 DUP3 DUP10 ADD PUSH2 0x33C JUMP JUMPDEST SWAP3 POP POP PUSH1 0x80 PUSH2 0x408 DUP9 DUP3 DUP10 ADD PUSH2 0x33C JUMP JUMPDEST SWAP2 POP POP SWAP3 SWAP6 POP SWAP3 SWAP6 SWAP1 SWAP4 POP JUMP JUMPDEST PUSH1 0x0 PUSH2 0x420 DUP3 PUSH2 0x574 JUMP JUMPDEST PUSH2 0x42A DUP2 DUP6 PUSH2 0x57F JUMP JUMPDEST SWAP4 POP PUSH2 0x43A DUP2 DUP6 PUSH1 0x20 DUP7 ADD PUSH2 0x5A9 JUMP JUMPDEST PUSH2 0x443 DUP2 PUSH2 0x729 JUMP JUMPDEST DUP5 ADD SWAP2 POP POP SWAP3 SWAP2 POP POP JUMP JUMPDEST PUSH2 0x457 DUP2 PUSH2 0x590 JUMP JUMPDEST DUP3 MSTORE POP POP JUMP JUMPDEST PUSH1 0x0 PUSH1 0x80 DUP3 ADD SWAP1 POP DUP2 DUP2 SUB PUSH1 0x0 DUP4 ADD MSTORE PUSH2 0x477 DUP2 DUP8 PUSH2 0x415 JUMP JUMPDEST SWAP1 POP PUSH2 0x486 PUSH1 0x20 DUP4 ADD DUP7 PUSH2 0x44E JUMP JUMPDEST PUSH2 0x493 PUSH1 0x40 DUP4 ADD DUP6 PUSH2 0x44E JUMP JUMPDEST PUSH2 0x4A0 PUSH1 0x60 DUP4 ADD DUP5 PUSH2 0x44E JUMP JUMPDEST SWAP6 SWAP5 POP POP POP POP POP JUMP JUMPDEST PUSH1 0x0 PUSH1 0x20 DUP3 ADD SWAP1 POP PUSH2 0x4BE PUSH1 0x0 DUP4 ADD DUP5 PUSH2 0x44E JUMP JUMPDEST SWAP3 SWAP2 POP POP JUMP JUMPDEST PUSH1 0x0 PUSH1 0xA0 DUP3 ADD SWAP1 POP PUSH2 0x4D9 PUSH1 0x0 DUP4 ADD DUP9 PUSH2 0x44E JUMP JUMPDEST DUP2 DUP2 SUB PUSH1 0x20 DUP4 ADD MSTORE PUSH2 0x4EB DUP2 DUP8 PUSH2 0x415 JUMP JUMPDEST SWAP1 POP PUSH2 0x4FA PUSH1 0x40 DUP4 ADD DUP7 PUSH2 0x44E JUMP JUMPDEST PUSH2 0x507 PUSH1 0x60 DUP4 ADD DUP6 PUSH2 0x44E JUMP JUMPDEST PUSH2 0x514 PUSH1 0x80 DUP4 ADD DUP5 PUSH2 0x44E JUMP JUMPDEST SWAP7 SWAP6 POP POP POP POP POP POP JUMP JUMPDEST PUSH1 0x0 PUSH2 0x528 PUSH2 0x539 JUMP JUMPDEST SWAP1 POP PUSH2 0x534 DUP3 DUP3 PUSH2 0x60E JUMP JUMPDEST SWAP2 SWAP1 POP JUMP JUMPDEST PUSH1 0x0 PUSH1 0x40 MLOAD SWAP1 POP SWAP1 JUMP JUMPDEST PUSH1 0x0 PUSH8 0xFFFFFFFFFFFFFFFF DUP3 GT ISZERO PUSH2 0x55E JUMPI PUSH2 0x55D PUSH2 0x6E6 JUMP JUMPDEST JUMPDEST PUSH2 0x567 DUP3 PUSH2 0x729 JUMP JUMPDEST SWAP1 POP PUSH1 0x20 DUP2 ADD SWAP1 POP SWAP2 SWAP1 POP JUMP JUMPDEST PUSH1 0x0 DUP2 MLOAD SWAP1 POP SWAP2 SWAP1 POP JUMP JUMPDEST PUSH1 0x0 DUP3 DUP3 MSTORE PUSH1 0x20 DUP3 ADD SWAP1 POP SWAP3 SWAP2 POP POP JUMP JUMPDEST PUSH1 0x0 DUP2 SWAP1 POP SWAP2 SWAP1 POP JUMP JUMPDEST DUP3 DUP2 DUP4 CALLDATACOPY PUSH1 0x0 DUP4 DUP4 ADD MSTORE POP POP POP JUMP JUMPDEST PUSH1 0x0 JUMPDEST DUP4 DUP2 LT ISZERO PUSH2 0x5C7 JUMPI DUP1 DUP3 ADD MLOAD DUP2 DUP5 ADD MSTORE PUSH1 0x20 DUP2 ADD SWAP1 POP PUSH2 0x5AC JUMP JUMPDEST DUP4 DUP2 GT ISZERO PUSH2 0x5D6 JUMPI PUSH1 0x0 DUP5 DUP5 ADD MSTORE JUMPDEST POP POP POP POP JUMP JUMPDEST PUSH1 0x0 PUSH1 0x2 DUP3 DIV SWAP1 POP PUSH1 0x1 DUP3 AND DUP1 PUSH2 0x5F4 JUMPI PUSH1 0x7F DUP3 AND SWAP2 POP JUMPDEST PUSH1 0x20 DUP3 LT DUP2 EQ ISZERO PUSH2 0x608 JUMPI PUSH2 0x607 PUSH2 0x6B7 JUMP JUMPDEST JUMPDEST POP SWAP2 SWAP1 POP JUMP JUMPDEST PUSH2 0x617 DUP3 PUSH2 0x729 JUMP JUMPDEST DUP2 ADD DUP2 DUP2 LT PUSH8 0xFFFFFFFFFFFFFFFF DUP3 GT OR ISZERO PUSH2 0x636 JUMPI PUSH2 0x635 PUSH2 0x6E6 JUMP JUMPDEST JUMPDEST DUP1 PUSH1 0x40 MSTORE POP POP POP JUMP JUMPDEST PUSH1 0x0 PUSH2 0x64A DUP3 PUSH2 0x590 JUMP JUMPDEST SWAP2 POP PUSH32 0xFFFFFFFFFFFFFFFFFFFFFFFFFFFFFFFFFFFFFFFFFFFFFFFFFFFFFFFFFFFFFFFF DUP3 EQ ISZERO PUSH2 0x67D JUMPI PUSH2 0x67C PUSH2 0x688 JUMP JUMPDEST JUMPDEST PUSH1 0x1 DUP3 ADD SWAP1 POP SWAP2 SWAP1 POP JUMP JUMPDEST PUSH32 0x4E487B7100000000000000000000000000000000000000000000000000000000 PUSH1 0x0 MSTORE PUSH1 0x11 PUSH1 0x4 MSTORE PUSH1 0x24 PUSH1 0x0 REVERT JUMPDEST PUSH32 0x4E487B7100000000000000000000000000000000000000000000000000000000 PUSH1 0x0 MSTORE PUSH1 0x22 PUSH1 0x4 MSTORE PUSH1 0x24 PUSH1 0x0 REVERT JUMPDEST PUSH32 0x4E487B7100000000000000000000000000000000000000000000000000000000 PUSH1 0x0 MSTORE PUSH1 0x41 PUSH1 0x4 MSTORE PUSH1 0x24 PUSH1 0x0 REVERT JUMPDEST PUSH1 0x0 DUP1 REVERT JUMPDEST PUSH1 0x0 DUP1 REVERT JUMPDEST PUSH1 0x0 DUP1 REVERT JUMPDEST PUSH1 0x0 DUP1 REVERT JUMPDEST PUSH1 0x0 PUSH1 0x1F NOT PUSH1 0x1F DUP4 ADD AND SWAP1 POP SWAP2 SWAP1 POP JUMP JUMPDEST PUSH2 0x743 DUP2 PUSH2 0x590 JUMP JUMPDEST DUP2 EQ PUSH2 0x74E JUMPI PUSH1 0x0 DUP1 REVERT JUMPDEST POP JUMP INVALID LOG2 PUSH5 0x6970667358 0x22 SLT KECCAK256 0x4D EQ 0xDE KECCAK256 COINBASE PUSH14 0x6751CBB4006A054B06B45DE681A9 0xC3 XOR RETURNDATACOPY SWAP5 DUP10 CHAINID PUSH2 0x90E4 ADDRESS 0x5C EXP PUSH5 0x736F6C6343 STOP ADDMOD MOD STOP CALLER "
		},
		"gasEstimates": {
			"creation": {
				"codeDepositCost": "385400",
				"executionCost": "424",
				"totalCost": "385824"
			},
			"external": {
				"interactionCount()": "2451",
				"interactions(uint256)": "infinite",
				"storeInteraction(uint256,string,uint256,uint256,uint256)": "infinite"
			}
		},
		"methodIdentifiers": {
			"interactionCount()": "a890610b",
			"interactions(uint256)": "0ba460ff",
			"storeInteraction(uint256,string,uint256,uint256,uint256)": "64fbc616"
		}
	},
	"abi": [
		{
			"anonymous": false,
			"inputs": [
				{
					"indexed": true,
					"internalType": "uint256",
					"name": "requestId",
					"type": "uint256"
				},
				{
					"indexed": false,
					"internalType": "string",
					"name": "consumerName",
					"type": "string"
				},
				{
					"indexed": false,
					"internalType": "uint256",
					"name": "allocatedResources",
					"type": "uint256"
				},
				{
					"indexed": false,
					"internalType": "uint256",
					"name": "usedResources",
					"type": "uint256"
				},
				{
					"indexed": false,
					"internalType": "uint256",
					"name": "unusedResources",
					"type": "uint256"
				}
			],
			"name": "InteractionData",
			"type": "event"
		},
		{
			"inputs": [],
			"name": "interactionCount",
			"outputs": [
				{
					"internalType": "uint256",
					"name": "",
					"type": "uint256"
				}
			],
			"stateMutability": "view",
			"type": "function"
		},
		{
			"inputs": [
				{
					"internalType": "uint256",
					"name": "",
					"type": "uint256"
				}
			],
			"name": "interactions",
			"outputs": [
				{
					"internalType": "uint256",
					"name": "requestId",
					"type": "uint256"
				},
				{
					"internalType": "string",
					"name": "consumerName",
					"type": "string"
				},
				{
					"internalType": "uint256",
					"name": "allocatedResources",
					"type": "uint256"
				},
				{
					"internalType": "uint256",
					"name": "usedResources",
					"type": "uint256"
				},
				{
					"internalType": "uint256",
					"name": "unusedResources",
					"type": "uint256"
				}
			],
			"stateMutability": "view",
			"type": "function"
		},
		{
			"inputs": [
				{
					"internalType": "uint256",
					"name": "_requestId",
					"type": "uint256"
				},
				{
					"internalType": "string",
					"name": "_consumerName",
					"type": "string"
				},
				{
					"internalType": "uint256",
					"name": "_allocatedResources",
					"type": "uint256"
				},
				{
					"internalType": "uint256",
					"name": "_usedResources",
					"type": "uint256"
				},
				{
					"internalType": "uint256",
					"name": "_unusedResources",
					"type": "uint256"
				}
			],
			"name": "storeInteraction",
			"outputs": [],
			"stateMutability": "nonpayable",
			"type": "function"
		}
	]
}